:100000000C9444000C9400000C9400000C9400002C
:100010000C9400000C9400000C9400000C94000060
:100020000C9400000C9471000C9400000C940000DF
:100030000C9400000C9400000C9400000C94000040
:100040000C9400000C9400000C9400000C94000030
:100050000C940000000000000000010000000000FF
:10006000010001000000010000000000010001008B
:100070000000000001000000010006000400540020
:100080001F0060015A000000F894EE27ECBBF1E07D
:10009000FBBFEBBFE5BF8DE0A2E0BB27ED938A95E8
:1000A000E9F780E094E0A0E6ED930197E9F7EAE74D
:1000B000F0E085919591009761F0A591B59105903B
:1000C0001590BF01F00105900D920197E1F7FB013A
:1000D000F0CFEFE5EDBFE4E0EEBFC0E6D1E00C9479
:1000E000CB000A92EA93FA93EFB7EA93ECE0E2BF0F
:1000F000E1E0F0E0E615F70509F047C0042C05281B
:1001000061F5F4010E940101E05AFE4FE081E03008
:1001100011F4D89801C0D89AF4010E940101EE5957
:10012000FE4FE081E03011F4D99801C0D99AF40172
:100130000E940101EC59FE4FE081E03011F4DA98A1
:1001400001C0DA9AF4010E940101EA59FE4FE081F0
:10015000E03011F4DB9801C0DB9AE5E0F0E0E41553
:10016000F50581F444245524E3E0F0E08E169F0663
:1001700024F4F40131964F0104C0882499246624A4
:10018000772403C0F20131962F01E991EFBFF99175
:10019000E99109901895EFEFEABBE0E0EBBBE4BB17
:1001A000E3BBE4E0E3BFECE0E2BFE0E0ECBFEFBDC7
:1001B000EEBDEDBDECBDE7BDE6BDEBBDEABDE9BD05
:1001C000E8BDE2BDE5BDE4BDE3BDE1E0E9BFE0E0DF
:1001D000E5BFE4BFEAB9E0E8E8B9E0E0E0BFE6B9CE
:1001E000EDB9E6BF78949A9904C000240614070478
:1001F00009F005C044245524E1E0F0E03F01F3CFCD
:10020000FFCFEE0FFF1FEE0FFF1FEE0FFF1F089532
:00000001FF
