:080000000C9443000C94000075
:100008000C9400000C9400000C9400000C94000068
:100018000C9400000C9400000C9400000C947000E8
:100028000C9400000C9400000C9400000C94000048
:100038000C9400000C9400000C9400000C94000038
:100048000C9400000C9400000C94000001000100C6
:100058000100000000000100010000000100000094
:100068000000010001000000000001000000010084
:100078000400040054001F00600158000000F894B8
:10008800EE27ECBBF1E0FBBFEBBFE5BF8DE0A2E0E4
:10009800BB27ED938A95E9F780E094E0A0E6ED931D
:1000A8000197E9F7E8E7F0E085919591009761F00D
:1000B800A591B59105901590BF01F00105900D929D
:1000C8000197E1F7FB01F0CFEFE5EDBFE4E0EEBF0C
:1000D800C0E6D1E00C94C8000A92EA93FA93EFB70D
:1000E800EA93ECE0E2BFF3010E94ED00E05AFE4F14
:1000F800E081E03011F4D89801C0D89AF3010E9449
:10010800ED00EE59FE4FE081E03011F4D99801C0BE
:10011800D99AF3010E94ED00EC59FE4FE081E030DE
:1001280011F4DA9801C0DA9AF3010E94ED00EA5955
:10013800FE4FE081E03011F4DB9801C0DB9AE1E08A
:10014800F0E0E415F50559F4E3E0F0E06E167F06FB
:1001580024F4F30131963F0102C066247724EFEFBF
:10016800FFEFE415F50551F40024061407041CF408
:10017800F301319702C0E3E0F0E03F01E991EFBFFE
:10018800F991E99109901895EFEFEABBE0E0EBBB34
:10019800E4BBE3BBE4E0E3BFE1E0E9BF78949A990C
:1001A80016C000240414050424F4EFEFFFEF2F0118
:1001B8000EC0E1E0F0E02F01E3E0F0E06E167F060C
:1001C80024F4F30131963F0102C066247724E7CF77
:1001D800FFCFEE0FFF1FEE0FFF1FEE0FFF1F08955B
:00000001FF
